{
  "contractName": "BloodDonation",
  "abi": [
    {
      "inputs": [
        {
          "internalType": "uint256",
          "name": "",
          "type": "uint256"
        }
      ],
      "name": "requests",
      "outputs": [
        {
          "internalType": "uint256",
          "name": "id",
          "type": "uint256"
        },
        {
          "internalType": "string",
          "name": "username",
          "type": "string"
        },
        {
          "internalType": "string",
          "name": "phone",
          "type": "string"
        },
        {
          "internalType": "string",
          "name": "bloodType",
          "type": "string"
        },
        {
          "internalType": "uint256",
          "name": "units",
          "type": "uint256"
        },
        {
          "internalType": "string",
          "name": "hospital",
          "type": "string"
        },
        {
          "internalType": "string",
          "name": "city",
          "type": "string"
        },
        {
          "internalType": "string",
          "name": "reason",
          "type": "string"
        },
        {
          "internalType": "string",
          "name": "status",
          "type": "string"
        }
      ],
      "stateMutability": "view",
      "type": "function"
    },
    {
      "inputs": [
        {
          "internalType": "string",
          "name": "_username",
          "type": "string"
        },
        {
          "internalType": "string",
          "name": "_phone",
          "type": "string"
        },
        {
          "internalType": "string",
          "name": "_bloodType",
          "type": "string"
        },
        {
          "internalType": "uint256",
          "name": "_units",
          "type": "uint256"
        },
        {
          "internalType": "string",
          "name": "_hospital",
          "type": "string"
        },
        {
          "internalType": "string",
          "name": "_city",
          "type": "string"
        },
        {
          "internalType": "string",
          "name": "_reason",
          "type": "string"
        },
        {
          "internalType": "string",
          "name": "_status",
          "type": "string"
        }
      ],
      "name": "addRequest",
      "outputs": [],
      "stateMutability": "nonpayable",
      "type": "function"
    },
    {
      "inputs": [
        {
          "internalType": "uint256",
          "name": "_id",
          "type": "uint256"
        }
      ],
      "name": "getRequest",
      "outputs": [
        {
          "components": [
            {
              "internalType": "uint256",
              "name": "id",
              "type": "uint256"
            },
            {
              "internalType": "string",
              "name": "username",
              "type": "string"
            },
            {
              "internalType": "string",
              "name": "phone",
              "type": "string"
            },
            {
              "internalType": "string",
              "name": "bloodType",
              "type": "string"
            },
            {
              "internalType": "uint256",
              "name": "units",
              "type": "uint256"
            },
            {
              "internalType": "string",
              "name": "hospital",
              "type": "string"
            },
            {
              "internalType": "string",
              "name": "city",
              "type": "string"
            },
            {
              "internalType": "string",
              "name": "reason",
              "type": "string"
            },
            {
              "internalType": "string",
              "name": "status",
              "type": "string"
            }
          ],
          "internalType": "struct BloodDonation.Request",
          "name": "",
          "type": "tuple"
        }
      ],
      "stateMutability": "view",
      "type": "function"
    }
  ],
  "bytecode": "0x608060405234801561000f575f80fd5b506113688061001d5f395ff3fe608060405234801561000f575f80fd5b506004361061003f575f3560e01c806381d12c5814610043578063a314a22b1461007b578063c58343ef14610097575b5f80fd5b61005d60048036038101906100589190610ab8565b6100c7565b60405161007299989796959493929190610b7c565b60405180910390f35b61009560048036038101906100909190610d64565b6104c9565b005b6100b160048036038101906100ac9190610ab8565b6105ed565b6040516100be919061101c565b60405180910390f35b5f81815481106100d5575f80fd5b905f5260205f2090600902015f91509050805f0154908060010180546100fa90611069565b80601f016020809104026020016040519081016040528092919081815260200182805461012690611069565b80156101715780601f1061014857610100808354040283529160200191610171565b820191905f5260205f20905b81548152906001019060200180831161015457829003601f168201915b50505050509080600201805461018690611069565b80601f01602080910402602001604051908101604052809291908181526020018280546101b290611069565b80156101fd5780601f106101d4576101008083540402835291602001916101fd565b820191905f5260205f20905b8154815290600101906020018083116101e057829003601f168201915b50505050509080600301805461021290611069565b80601f016020809104026020016040519081016040528092919081815260200182805461023e90611069565b80156102895780601f1061026057610100808354040283529160200191610289565b820191905f5260205f20905b81548152906001019060200180831161026c57829003601f168201915b5050505050908060040154908060050180546102a490611069565b80601f01602080910402602001604051908101604052809291908181526020018280546102d090611069565b801561031b5780601f106102f25761010080835404028352916020019161031b565b820191905f5260205f20905b8154815290600101906020018083116102fe57829003601f168201915b50505050509080600601805461033090611069565b80601f016020809104026020016040519081016040528092919081815260200182805461035c90611069565b80156103a75780601f1061037e576101008083540402835291602001916103a7565b820191905f5260205f20905b81548152906001019060200180831161038a57829003601f168201915b5050505050908060070180546103bc90611069565b80601f01602080910402602001604051908101604052809291908181526020018280546103e890611069565b80156104335780601f1061040a57610100808354040283529160200191610433565b820191905f5260205f20905b81548152906001019060200180831161041657829003601f168201915b50505050509080600801805461044890611069565b80601f016020809104026020016040519081016040528092919081815260200182805461047490611069565b80156104bf5780601f10610496576101008083540402835291602001916104bf565b820191905f5260205f20905b8154815290600101906020018083116104a257829003601f168201915b5050505050905089565b5f6040518061012001604052805f8054905081526020018a815260200189815260200188815260200187815260200186815260200185815260200184815260200183815250908060018154018082558091505060019003905f5260205f2090600902015f909190919091505f820151815f015560208201518160010190816105519190611236565b5060408201518160020190816105679190611236565b50606082015181600301908161057d9190611236565b506080820151816004015560a082015181600501908161059d9190611236565b5060c08201518160060190816105b39190611236565b5060e08201518160070190816105c99190611236565b506101008201518160080190816105e09190611236565b5050505050505050505050565b6105f5610a2a565b5f828154811061060857610607611305565b5b905f5260205f209060090201604051806101200160405290815f820154815260200160018201805461063990611069565b80601f016020809104026020016040519081016040528092919081815260200182805461066590611069565b80156106b05780601f10610687576101008083540402835291602001916106b0565b820191905f5260205f20905b81548152906001019060200180831161069357829003601f168201915b505050505081526020016002820180546106c990611069565b80601f01602080910402602001604051908101604052809291908181526020018280546106f590611069565b80156107405780601f1061071757610100808354040283529160200191610740565b820191905f5260205f20905b81548152906001019060200180831161072357829003601f168201915b5050505050815260200160038201805461075990611069565b80601f016020809104026020016040519081016040528092919081815260200182805461078590611069565b80156107d05780601f106107a7576101008083540402835291602001916107d0565b820191905f5260205f20905b8154815290600101906020018083116107b357829003601f168201915b50505050508152602001600482015481526020016005820180546107f390611069565b80601f016020809104026020016040519081016040528092919081815260200182805461081f90611069565b801561086a5780601f106108415761010080835404028352916020019161086a565b820191905f5260205f20905b81548152906001019060200180831161084d57829003601f168201915b5050505050815260200160068201805461088390611069565b80601f01602080910402602001604051908101604052809291908181526020018280546108af90611069565b80156108fa5780601f106108d1576101008083540402835291602001916108fa565b820191905f5260205f20905b8154815290600101906020018083116108dd57829003601f168201915b5050505050815260200160078201805461091390611069565b80601f016020809104026020016040519081016040528092919081815260200182805461093f90611069565b801561098a5780601f106109615761010080835404028352916020019161098a565b820191905f5260205f20905b81548152906001019060200180831161096d57829003601f168201915b505050505081526020016008820180546109a390611069565b80601f01602080910402602001604051908101604052809291908181526020018280546109cf90611069565b8015610a1a5780601f106109f157610100808354040283529160200191610a1a565b820191905f5260205f20905b8154815290600101906020018083116109fd57829003601f168201915b5050505050815250509050919050565b6040518061012001604052805f81526020016060815260200160608152602001606081526020015f8152602001606081526020016060815260200160608152602001606081525090565b5f604051905090565b5f80fd5b5f80fd5b5f819050919050565b610a9781610a85565b8114610aa1575f80fd5b50565b5f81359050610ab281610a8e565b92915050565b5f60208284031215610acd57610acc610a7d565b5b5f610ada84828501610aa4565b91505092915050565b610aec81610a85565b82525050565b5f81519050919050565b5f82825260208201905092915050565b5f5b83811015610b29578082015181840152602081019050610b0e565b5f8484015250505050565b5f601f19601f8301169050919050565b5f610b4e82610af2565b610b588185610afc565b9350610b68818560208601610b0c565b610b7181610b34565b840191505092915050565b5f61012082019050610b905f83018c610ae3565b8181036020830152610ba2818b610b44565b90508181036040830152610bb6818a610b44565b90508181036060830152610bca8189610b44565b9050610bd96080830188610ae3565b81810360a0830152610beb8187610b44565b905081810360c0830152610bff8186610b44565b905081810360e0830152610c138185610b44565b9050818103610100830152610c288184610b44565b90509a9950505050505050505050565b5f80fd5b5f80fd5b7f4e487b71000000000000000000000000000000000000000000000000000000005f52604160045260245ffd5b610c7682610b34565b810181811067ffffffffffffffff82111715610c9557610c94610c40565b5b80604052505050565b5f610ca7610a74565b9050610cb38282610c6d565b919050565b5f67ffffffffffffffff821115610cd257610cd1610c40565b5b610cdb82610b34565b9050602081019050919050565b828183375f83830152505050565b5f610d08610d0384610cb8565b610c9e565b905082815260208101848484011115610d2457610d23610c3c565b5b610d2f848285610ce8565b509392505050565b5f82601f830112610d4b57610d4a610c38565b5b8135610d5b848260208601610cf6565b91505092915050565b5f805f805f805f80610100898b031215610d8157610d80610a7d565b5b5f89013567ffffffffffffffff811115610d9e57610d9d610a81565b5b610daa8b828c01610d37565b985050602089013567ffffffffffffffff811115610dcb57610dca610a81565b5b610dd78b828c01610d37565b975050604089013567ffffffffffffffff811115610df857610df7610a81565b5b610e048b828c01610d37565b9650506060610e158b828c01610aa4565b955050608089013567ffffffffffffffff811115610e3657610e35610a81565b5b610e428b828c01610d37565b94505060a089013567ffffffffffffffff811115610e6357610e62610a81565b5b610e6f8b828c01610d37565b93505060c089013567ffffffffffffffff811115610e9057610e8f610a81565b5b610e9c8b828c01610d37565b92505060e089013567ffffffffffffffff811115610ebd57610ebc610a81565b5b610ec98b828c01610d37565b9150509295985092959890939650565b610ee281610a85565b82525050565b5f82825260208201905092915050565b5f610f0282610af2565b610f0c8185610ee8565b9350610f1c818560208601610b0c565b610f2581610b34565b840191505092915050565b5f61012083015f830151610f465f860182610ed9565b5060208301518482036020860152610f5e8282610ef8565b91505060408301518482036040860152610f788282610ef8565b91505060608301518482036060860152610f928282610ef8565b9150506080830151610fa76080860182610ed9565b5060a083015184820360a0860152610fbf8282610ef8565b91505060c083015184820360c0860152610fd98282610ef8565b91505060e083015184820360e0860152610ff38282610ef8565b91505061010083015184820361010086015261100f8282610ef8565b9150508091505092915050565b5f6020820190508181035f8301526110348184610f30565b905092915050565b7f4e487b71000000000000000000000000000000000000000000000000000000005f52602260045260245ffd5b5f600282049050600182168061108057607f821691505b6020821081036110935761109261103c565b5b50919050565b5f819050815f5260205f209050919050565b5f6020601f8301049050919050565b5f82821b905092915050565b5f600883026110f57fffffffffffffffffffffffffffffffffffffffffffffffffffffffffffffffff826110ba565b6110ff86836110ba565b95508019841693508086168417925050509392505050565b5f819050919050565b5f61113a61113561113084610a85565b611117565b610a85565b9050919050565b5f819050919050565b61115383611120565b61116761115f82611141565b8484546110c6565b825550505050565b5f90565b61117b61116f565b61118681848461114a565b505050565b5b818110156111a95761119e5f82611173565b60018101905061118c565b5050565b601f8211156111ee576111bf81611099565b6111c8846110ab565b810160208510156111d7578190505b6111eb6111e3856110ab565b83018261118b565b50505b505050565b5f82821c905092915050565b5f61120e5f19846008026111f3565b1980831691505092915050565b5f61122683836111ff565b9150826002028217905092915050565b61123f82610af2565b67ffffffffffffffff81111561125857611257610c40565b5b6112628254611069565b61126d8282856111ad565b5f60209050601f83116001811461129e575f841561128c578287015190505b611296858261121b565b8655506112fd565b601f1984166112ac86611099565b5f5b828110156112d3578489015182556001820191506020850194506020810190506112ae565b868310156112f057848901516112ec601f8916826111ff565b8355505b6001600288020188555050505b505050505050565b7f4e487b71000000000000000000000000000000000000000000000000000000005f52603260045260245ffdfea2646970667358221220e5ac5cf0ccbe724f4061b60f7088731d3aa6fda630613c91c0b513d629852fbc64736f6c63430008150033",
  "immutableReferences": {},
  "source": "// SPDX-License-Identifier: MIT\r\npragma solidity ^0.8.0;\r\n\r\ncontract BloodDonation {\r\n    struct Request {\r\n        uint id;\r\n        string username;\r\n        string phone;\r\n        string bloodType;\r\n        uint units;\r\n        string hospital;\r\n        string city;\r\n        string reason;\r\n        string status;\r\n    }\r\n\r\n    Request[] public requests;\r\n\r\n    function addRequest(string memory _username, string memory _phone, string memory _bloodType, uint _units, string memory _hospital, string memory _city, string memory _reason, string memory _status) public {\r\n        requests.push(Request(requests.length, _username, _phone, _bloodType, _units, _hospital, _city, _reason, _status));\r\n    }\r\n\r\n    function getRequest(uint _id) public view returns (Request memory) {\r\n        return requests[_id];\r\n    }\r\n}",
  "sourcePath": "C:\\xampp\\htdocs\\blood\\BloodDonation\\contracts\\BloodDonation.sol",
  "compiler": {
    "name": "solc",
    "version": "0.8.21+commit.d9974bed.Emscripten.clang"
  },
  "schemaVersion": "3.4.16",
  "updatedAt": "2024-11-10T15:14:51.613Z",
  "devdoc": {
    "kind": "dev",
    "methods": {},
    "version": 1
  },
  "userdoc": {
    "kind": "user",
    "methods": {},
    "version": 1
  }
}